S015000074796E3632355F6472697665722E737265632C
S11300000C9434000C9446000C9446000C94460066
S11300100C9446000C9446000C9446000C94EE019B
S11300200C9446000C9446000C9446000C94BB01BE
S11300300C9446000C9446000C9487010C944600E2
S11300400C9446000C9446000C9446000C94460014
S11300500C9446000C9446000C9446000C94460004
S11300600C9446000C94460011241FBECFEFD8E038
S1130070DEBFCDBF21E0A0E0B1E001C01D92AA30F7
S1130080B207E1F70E9448000C9437020C94000078
S1130090CF93DF9300D0CDB7DEB7ECE7F0E08081FB
S11300A080648083808182608083EAE7F0E08081DD
S11300B08660808380818062808380818068808381
S11300C0808180648083529A509A3B9A539A519AC1
S11300D03C9A14B815B8EEE6F0E080818260808323
S11300E0EFE6F0E0808182608083E0E7F0E08081E9
S11300F0826080831A821982789410920601109289
S113010000011092050149E750E0E8E7F0E00F2E06
S1130110F8E8AF2EB12CF02D0F2EF5E88F2E912C90
S1130120F02D0F2EF4E86F2E712CF02D0F2EF1E828
S1130130EF2EF12CF02D0F2EF3EBCF2ED12CF02D32
S11301400F2EF2EB4F2E512CF02D01EB10E0332447
S113015033942B9B29C080910301813031F180912C
S1130160060130920301DA012C91808190E0922BF8
S11301709A83898329813A81ABEABAEA0E942802E8
S113018096958795969587958E5A87BD2A9903C02B
S11301903092090102C01092090116BC3092060186
S11301A085B5846085BD01C085B12A9B2EC0809130
S11301B00801813059F18091000130920801DA017F
S11301C02C91808190E0922B9A83898329813A81B2
S11301D0ABEABAEA0E942802969587959695879588
S11301E08E5AD5018C93299903C03092070102C01D
S11301F010920701D4011C92D3011C923092000189
S1130200D7018C9184608C9301C085B1299B2CC04B
S113021080910401813049F18091050130920401FB
S1130220DA012C91808190E0922B9A838983298131
S11302303A81ABEABAEA0E94280296958795969588
S113024087958E5AD6018C932B9903C03092020164
S113025002C010920201D2011C9230920501D80111
S11302608C9186608C9301C085B1809101018330AB
S113027011F128F4813049F0823091F06ACF853051
S113028081F120F18630C1F164CF5A9A599AB5E8C8
S1130290BA95F1F700005A9859981092010159CF74
S11302A05A9A449A85E88A95F1F700005A98449836
S11302B0109201014ECF589A599AA5E8AA95F1F7E0
S11302C00000589859981092010143CF589A5B9AAC
S11302D0B5E8BA95F1F7000058985B9810920101BF
S11302E038CF439A5B9A85E88A95F1F700004398E2
S11302F05B98109201012DCF439A599AA5E8AA95CB
S1130300F1F70000439859981092010122CF1F92EF
S11303100F920FB60F9211248F9385B58B7F85BDF5
S113032080910301882381F080910901811104C027
S113033081E08093010117C080910901813099F413
S113034082E0809301010FC080910901811104C0F2
S113035084E08093010107C080910901813019F480
S113036085E080930101109206018F910F900FBEDA
S11303700F901F9018951F920F920FB60F92112491
S11303808F9385B58B7F85BD80910801882381F08B
S113039080910701811104C083E08093010116C09C
S11303A080910701813091F484E0809301010EC0B3
S11303B080910701811104C086E08093010106C089
S11303C080910701813011F48093010110920001A2
S11303D08F910F900FBE0F901F9018951F920F9240
S11303E00FB60F9211248F93EF93FF93E1EBF0E09C
S11303F080818B7F808380910401882381F08091A8
S11304000701811104C085E08093010117C0809128
S11304100701813099F486E0809301010FC0809137
S11304200701811104C082E08093010107C080911B
S11304300701813019F483E08093010110920501D2
S1130440FF91EF918F910F900FBE0F901F90189511
S1130450A29FB001B39FC001A39F700D811D112401
S1130460911DB29F700D811D1124911D0895F89462
S1050470FFCFB8
S9030000FC
