:100000000C9434000C9446000C9446000C9446006A
:100010000C9446000C9446000C9446000C943F024D
:100020000C9446000C9446000C9446000C940E026E
:100030000C9446000C9446000C94DC010C94460091
:100040000C9446000C9446000C9446000C94460018
:100050000C9446000C9446000C9446000C94460008
:100060000C9446000C94460011241FBECFEFD8E03C
:10007000DEBFCDBF21E0A0E0B1E001C01D92A730FE
:10008000B207E1F70E9448000C9486020C9400002D
:10009000ECE7F0E0808180648083808182608083EF
:1000A000EAE7F0E0808186608083808180628083DF
:1000B000808180688083808180648083529A509A96
:1000C0003B9A539A519A3C9AEEE6F0E08081826026
:1000D0008083EFE6F0E0808182608083E0E7F0E0FB
:1000E0008081826080837894C9E7D0E0E8E7F0E01F
:1000F0000F2EF8E8AF2EB12CF02D0F2EF5E8CF2EF5
:10010000D12CF02D0F2EF4E8EF2EF12CF02D41E83C
:1001100050E00F2EF3EB8F2E912CF02D0F2EF2EBE3
:100120006F2E712CF02D01EB10E05524539485B106
:1001300083FB992790F983FF23C0913009F03FC0DA
:10014000809102018130D9F1509202018881208191
:1001500030E0382BABEABAEA0E9477029695879591
:10016000969587958E5A87BD2A9903C050920601AD
:1001700002C01092060116BC85B5846085BD1FC003
:10018000809102018823D9F0109202018881208198
:1001900030E0382BABEABAEA0E9477029695879551
:1001A000969587958E5A87BD299903C0509206016E
:1001B00002C01092060116BC85B5846085BD85B16C
:1001C00082FB992790F982FF2CC0913009F050C032
:1001D00080910501813009F44BC0509205012881BE
:1001E000808190E8299F90011124282BABEABAEA7C
:1001F0000E94770296958795969587958E5AD50198
:100200008C93299903C05092040102C010920401FA
:10021000D6011C92D7011C92DA018C9184608C93D8
:1002200027C080910501882319F1109205012881CA
:100230008081B0E82B9F90011124282BABEABAEA09
:100240000E94770296958795969587958E5AD50147
:100250008C932B9903C05092040102C010920401A8
:10026000D6011C92D7011C92DA018C9184608C9388
:1002700085B181FB992790F981FF2AC0913009F05F
:1002800049C080910301813009F444C050920301B8
:1002900028818081B0E82B9F90011124282BABEAA4
:1002A000BAEA0E94770296958795969587958E5A19
:1002B000D4018C932B9903C05092010102C010927B
:1002C0000101D3011C92D8018C9186608C9322C0CD
:1002D000809103018823F1F010920301888120812D
:1002E00030E0382BABEABAEA0E9477029695879500
:1002F000969587958E5AD4018C932A9903C0509273
:10030000010102C010920101D3011C92D8018C910D
:1003100086608C9380910001833011F128F4813044
:1003200049F0823091F003CF853081F120F18630A1
:10033000C1F1FDCE5A9A599AB5E8BA95F1F7000085
:100340005A98599810920001F2CE5A9A449A85E828
:100350008A95F1F700005A98449810920001E7CE70
:10036000589A599A95E89A95F1F700005898599833
:1003700010920001DCCE589A5B9AA5E8AA95F1F795
:10038000000058985B9810920001D1CE439A5B9A76
:10039000B5E8BA95F1F7000043985B981092000118
:1003A000C6CE439A599A85E88A95F1F7000043989A
:1003B000599810920001BBCE1F920F920FB60F9268
:1003C00011248F9385B58B7F85BD80910201882391
:1003D00081F080910601811104C081E080930001C9
:1003E00017C080910601813099F482E0809300016A
:1003F0000FC080910601811104C084E08093000148
:1004000007C080910601813019F485E080930001D6
:100410008F910F900FBE0F901F9018951F920F9203
:100420000FB60F9211248F9385B58B7F85BD809178
:100430000501882381F080910401811104C083E0CB
:100440008093000116C080910401813091F484E012
:10045000809300010EC080910401811104C086E0E8
:100460008093000106C080910401813011F48093D3
:1004700000018F910F900FBE0F901F9018951F9243
:100480000F920FB60F9211248F93EF93FF93E1EB2E
:10049000F0E080818B7F808380910301882381F04D
:1004A00080910401811104C085E08093000117C090
:1004B00080910401813099F486E0809300010FC09F
:1004C00080910401811104C082E08093000107C083
:1004D00080910401813019F483E080930001FF9141
:1004E000EF918F910F900FBE0F901F901895A29FC4
:1004F000B001B39FC001A39F700D811D1124911DF8
:10050000B29F700D811D1124911D0895F894FFCFA5
:00000001FF
