S015000074796E3632355F6472697665722E737265632C
S11300000C9434000C9446000C9446000C94460066
S11300100C9446000C9446000C9446000C94C902BF
S11300200C9446000C9446000C9446000C948B02ED
S11300300C9446000C9446000C944D020C9446001B
S11300400C9446000C9446000C9446000C94460014
S11300500C9446000C9446000C9446000C94460004
S11300600C9446000C94460011241FBECFEFD8E038
S1130070DEBFCDBF21E0A0E0B1E001C01D92AD30F4
S1130080B207E1F70E946B000C9416030C94000075
S1130090ECE7F0E0808180648083EAE7F0E080812F
S11300A0866080838081806880830895ECE7F0E037
S11300B09081907F90839081892B8083EAE7F0E0A0
S11300C0808180648083808186FDFDCF809178006B
S11300D0909179000895E1E6F0E080E88083C1E042
S11300E0C083529A509A3B9A539A519A3C9A14B8A4
S11300F00E9448000E9413020E9423020E943802B8
S11301007894109203011092020110920A01109245
S113011009011092070110920B0110920C01109228
S11301200801C0930601C0930001C0930501109219
S11301300401FF24F39408E810E0C3EBD0E0EF2CB3
S113014083B183FB882780F98F2580930A0183B1CB
S113015082FB882780F98F258093090183B18695D6
S113016081708F258093070180910A01813071F598
S113017080910B0181112AC080910601882331F1FD
S113018080910A0180930B01909109018E2D9111A8
S113019080E08093040182E00E9456009093030162
S11301A0809302012091020130910301ABEABAEA83
S11301B00E9407039695879596958795855D87BDDB
S11301C00E942102109206010E94190280910A01E4
S11301D0811127C080910B01813019F580910601AE
S11301E08823F9F080910A0180930B0182E00E9438
S11301F056009093030180930201209102013091F3
S11302000301ABEABAEA0E9407039695879596958F
S11302108795855D87BD0E942102109206010E9488
S1130220190280910901813049F580910C018111F5
S113023025C080910001882309F1809109018093F0
S11302400C0182E00E945600909303018093020106
S11302502091020130910301ABEABAEA0E9407033C
S113026096958795969587958B96F80191838083CB
S11302700E943302109200010E9429028091090118
S1130280811129C080910C01813029F580910001F0
S1130290882309F18091090180930C0182E00E9476
S11302A05600909303018093020120910201309142
S11302B00301ABEABAEA0E940703969587959695DF
S11302C087958B96F801918380830E943302109264
S11302D000010E94290280910701813039F5809143
S11302E00801811123C0809105018823F9F08091D0
S11302F007018093080182E00E9456009093030155
S1130300809302012091020130910301ABEABAEA21
S11303100E9407039695879596958795855D8883B2
S11303200E944A02109205010E943E028091070138
S1130330811127C080910801813019F58091050150
S11303408823F9F0809107018093080182E00E94DC
S11303505600909303018093020120910201309191
S11303600301ABEABAEA0E9407039695879596952E
S11303708795855D88830E944A02109205010E9438
S11303803E0280910101833011F128F4813049F05B
S1130390823091F0D5CE853081F120F18630C1F1E3
S11303A0CFCE5A9A599AF5E8FA95F1F700005A987F
S11303B0599810920101C4CE5A9A449A85E88A95B4
S11303C0F1F700005A98449810920101B9CE589A56
S11303D0599AE5E8EA95F1F700005898599810926F
S11303E00101AECE589A5B9AF5E8FA95F1F7000050
S11303F058985B9810920101A3CE439A5B9A85E8C2
S11304008A95F1F7000043985B981092010198CE09
S1130410439A599AE5E8EA95F1F700004398599808
S1130420109201018DCEEEE6F0E08081826080833F
S1130430089585B5846085BD089585B58B7F85BD98
S1130440089516BC0895EFE6F0E080818260808311
S11304500895E1E8F0E0808184608083089585B5A3
S11304608B7F85BD089510928500109284000895B5
S1130470E0E7F0E08081826080830895E1EBF0E0C2
S11304808081866080830895E1EBF0E080818B7F3A
S1130490808308951092B20008951F920F920FB6B0
S11304A00F9211242F933F934F935F936F937F93F6
S11304B08F939F93AF93BF93EF93FF9381E08093C8
S11304C006010E941D0280910B01882351F0809146
S11304D00401813011F081E001C082E080930101C8
S11304E009C080910401813011F084E001C085E0ED
S11304F080930101FF91EF91BF91AF919F918F91F3
S11305007F916F915F914F913F912F910F900FBE0B
S11305100F901F9018951F920F920FB60F921124EF
S11305202F933F934F935F936F937F938F939F93F7
S1130530AF93BF93EF93FF9381E0809300010E94F8
S11305402F0280910C01882351F0809104018130A5
S113055011F083E001C084E08093010109C080911F
S11305600401813011F086E001C081E08093010133
S1130570FF91EF91BF91AF919F918F917F916F9177
S11305805F914F913F912F910F900FBE0F901F904D
S113059018951F920F920FB60F9211242F933F9329
S11305A04F935F936F937F938F939F93AF93BF9377
S11305B0EF93FF9381E0809305010E9444028091B0
S11305C00801882351F080910401813011F085E005
S11305D001C086E08093010109C08091040181304B
S11305E011F082E001C083E080930101FF91EF915B
S11305F0BF91AF919F918F917F916F915F914F9137
S11306003F912F910F900FBE0F901F901895A29FAE
S1130610B001B39FC001A39F700D811D1124911DD2
S1130620B29F700D811D1124911D0895F894FFCF80
S9030000FC
