S015000074796E3632355F6472697665722E737265632C
S11300000C9434000C9446000C9446000C94460066
S11300100C9446000C9446000C9446000C94E501A4
S11300200C9446000C9446000C9446000C94B401C5
S11300300C9446000C9446000C9482010C944600E7
S11300400C9446000C9446000C9446000C94460014
S11300500C9446000C9446000C9446000C94460004
S11300600C9446000C94460011241FBECFEFD8E038
S1130070DEBFCDBF21E0A0E0B1E001C01D92A730FA
S1130080B207E1F70E9448000C942C020C94000083
S1130090CF93DF9300D0CDB7DEB7E1E6F0E080E8A0
S11300A0808381E08083ECE7F0E08081806480835A
S11300B0808182608083EAE7F0E0808186608083CB
S11300C08081806280838081806880838081806475
S11300D08083529A509A3B9A539A519A3C9AEEE6EC
S11300E0F0E0808182608083EFE6F0E080818260CE
S11300F08083E0E7F0E08081826080831A82198245
S1130100789449E750E0E8E7F0E00F2EF8E88F2E06
S1130110912CF02D0F2EF5E8AF2EB12CF02D0F2ED3
S1130120F4E8CF2ED12CF02D0F2EF1E8EF2EF12C88
S1130130F02D0F2EF3EB6F2E712CF02D0F2EF2EB12
S11301404F2E512CF02D01EB10E0332433942B9BD4
S113015028C080910201813029F130920201DA0134
S11301608C912081B0E88B9FC0011124822B9A834B
S1130170898329813A81ABEABAEA0E941D029695E5
S11301808795969587958E5A87BD2A9903C0309294
S1130190060102C01092060116BC85B5846085BDB7
S11301A001C085B12A9B2DC080910501813051F198
S11301B030920501DA018C912081B0E88B9FC00157
S11301C01124822B9A83898329813A81ABEABAEA82
S11301D00E941D0296958795969587958E5AD4010F
S11301E08C93299903C03092040102C01092040137
S11301F0D5011C92D6011C92D7018C9184608C93FA
S113020001C085B1299B2BC080910301813041F14C
S113021030920301DA018C912081B0E88B9FC001F8
S11302201124822B9A83898329813A81ABEABAEA21
S11302300E941D0296958795969587958E5AD301AF
S11302408C932B9903C03092010102C010920101DA
S1130250D2011C92D8018C9186608C9301C085B127
S113026080910001833011F128F4813049F082300B
S113027091F06DCF853081F120F18630C1F167CFE7
S11302805A9A599AB5E8BA95F1F700005A985998CC
S1130290109200015CCF5A9A449A35E83A95F1F7E6
S11302A000005A9844981092000151CF589A599AD4
S11302B085E88A95F1F70000589859981092000142
S11302C046CF589A5B9AA5E8AA95F1F7000058988A
S11302D05B98109200013BCF439A5B9AB5E8BA95BC
S11302E0F1F7000043985B981092000130CF439AD5
S11302F0599A35E83A95F1F70000439859981092C5
S1130300000125CF1F920F920FB60F9211248F93E5
S113031085B58B7F85BD80910201882381F0809112
S11303200601811104C081E08093000117C080910F
S11303300601813099F482E0809300010FC080911E
S11303400601811104C084E08093000107C08091FC
S11303500601813019F485E0809300018F910F909C
S11303600FBE0F901F9018951F920F920FB60F9209
S113037011248F9385B58B7F85BD809105018823DA
S113038081F080910401811104C083E08093000115
S113039016C080910401813091F484E080930001BF
S11303A00EC080910401811104C086E08093000195
S11303B006C080910401813011F4809300018F9173
S11303C00F900FBE0F901F9018951F920F920FB6AB
S11303D00F9211248F93EF93FF93E1EBF0E0808170
S11303E08B7F808380910301882381F080910401B5
S11303F0811104C085E08093000117C0809104013D
S1130400813099F486E0809300010FC0809104014B
S1130410811104C082E08093000107C0809104012F
S1130420813019F483E080930001FF91EF918F9163
S11304300F900FBE0F901F901895A29FB001B39F0D
S1130440C001A39F700D811D1124911DB29F700DD9
S10F0450811D1124911D0895F894FFCF24
S9030000FC
