:100000000C9434000C9446000C9446000C9446006A
:100010000C9446000C9446000C9446000C94F0009E
:100020000C9446000C9446000C9446000C94BC00C2
:100030000C9446000C9446000C9488000C944600E6
:100040000C9446000C9446000C9446000C94460018
:100050000C9446000C9446000C9446000C94460008
:100060000C9446000C94460011241FBECFEFD8E03C
:10007000DEBFCDBF21E0A0E0B1E001C01D92AF30F6
:10008000B207E1F70E943C010C94FF020C940000BF
:10009000E1E6F0E080E8808381E080830895EEE689
:1000A000F0E0808182608083089585B5846085BD9D
:1000B000089585B58B7F85BD089516BC0895EFE63C
:1000C000F0E08081826080830895E1E8F0E0808143
:1000D000846080830895E1E8F0E080818B7F8083F5
:1000E000089510928500109284000895E0E7F0E0F2
:1000F0008081826080830895E1EBF0E080818660FA
:10010000808308951092B10008951092B20008956E
:100110001F920F920FB60F9211242F933F934F937C
:100120005F936F937F938F939F93AF93BF93EF935F
:10013000FF9381E0809308010E94590080910D0196
:100140008823B9F081E090E090930201809301014F
:10015000FF91EF91BF91AF919F918F917F916F919F
:100160005F914F913F912F910F900FBE0F901F9075
:10017000189584E090E0E8CF1F920F920FB60F928F
:1001800011242F933F934F935F936F937F938F939C
:100190009F93AF93BF93EF93FF9381E08093000110
:1001A0000E946B0080910E018823B9F083E090E0FB
:1001B0009093020180930101FF91EF91BF91AF9164
:1001C0009F918F917F916F915F914F913F912F916F
:1001D0000F900FBE0F901F90189586E090E0E8CF2B
:1001E0001F921FB61F9211248F939F9381E08093DB
:1001F00007011092B10080910A01882361F085E027
:1002000090E090930201809301019F918F911F9044
:100210001FBE1F90189582E090E0F3CFECE7F0E06E
:10022000808180648083EAE7F0E08081866080835B
:10023000808180688083089590917C00907F909366
:100240007C0090917C00892B80937C0080917A00C7
:10025000806480937A0080917A0086FDFCCF809143
:100260007800909179000895529A509A3B9A539A47
:10027000519A3C9A14B808950E9448000E94340193
:100280000E940E010E944F000E945F000E947600B3
:100290007894109204011092030110920C011092B4
:1002A0000B011092090110920D0110920E01109293
:1002B0000A0181E080930801809300018093070187
:1002C000109206011092050111E0C5E0D0E083B163
:1002D00083FB882780F9812780930C0183B1869561
:1002E0008170812780930B0183B182FB882780F97D
:1002F00081278093090180910C01813049F580911B
:100300000D01811125C080910801882309F1809198
:100310000C0180930D0182E00E941C019093040166
:1003200080930301809103019091040166E2833C74
:10033000910538F48091030190910401BE010E945F
:10034000EB0267BD0E945D00109208010E945500FB
:1003500080910C01811129C080910D01813029F516
:1003600080910801882309F180910C0180930D018F
:1003700082E00E941C01909304018093030180910C
:1003800003019091040166E2833C910538F4809169
:10039000030190910401BE010E94EB0267BD0E941F
:1003A0005D00109208010E94550080910B01813080
:1003B00069F580910E01811129C080910001882387
:1003C00029F180910B0180930E0182E00E941C01B3
:1003D00090930401809303018091030190910401A3
:1003E00066E270E0833C910538F4809103019091BE
:1003F0000401BE010E94EB027093890060938800A3
:100400000E947100109200010E94650080910B0112
:1004100081112DC080910E01813049F5809100013C
:10042000882329F180910B0180930E0182E00E94C4
:100430001C0190930401809303018091030190912A
:10044000040166E270E0833C910538F48091030179
:1004500090910401BE010E94EB02709389006093A9
:1004600088000E947100109200010E946500809136
:100470000901813051F580910A01811126C08091D6
:100480000701882311F18091090180930A0182E01C
:100490000E941C0190930401809303018091030149
:1004A0009091040166E2833C910538F48091030148
:1004B00090910401BE010E94EB026093B3000E9480
:1004C0008500109207010E947C0080910901811132
:1004D0002AC080910A01813031F58091070188237B
:1004E00011F18091090180930A0182E00E941C01B0
:1004F0009093040180930301809103019091040182
:1005000066E2833C910538F48091030190910401E7
:10051000BE010E94EB026093B3000E94850010921E
:1005200007010E947C0080910101909102018330BB
:10053000910591F1A8F48130910519F1029709F024
:10054000C6CE5A9A449A87EC90E00197F1F700C022
:1005500000005A9844981092020110920101B7CEFF
:100560008530910571F110F1069709F0B0CE439AEC
:10057000599A87EC90E00197F1F700C0000043988A
:1005800009C05A9A599A87EC90E00197F1F700C098
:1005900000005A985998DFCF589A449A87EC90E017
:1005A0000197F1F700C000005898D4CF589A5B9A91
:1005B00087EC90E00197F1F700C0000058985B9835
:1005C000CACF439A5B9A87EC90E00197F1F700C09D
:1005D00000004398F4CFAA1BBB1B51E107C0AA1F20
:1005E000BB1FA617B70710F0A61BB70B881F991FD4
:1005F0005A95A9F780959095BC01CD010895F8947E
:02060000FFCF2A
:00000001FF
